{
  "contractName": "Univ",
  "abi": [
    {
      "constant": true,
      "inputs": [
        {
          "internalType": "address",
          "name": "",
          "type": "address"
        }
      ],
      "name": "degreeCompleted",
      "outputs": [
        {
          "internalType": "bool",
          "name": "",
          "type": "bool"
        }
      ],
      "payable": false,
      "stateMutability": "view",
      "type": "function"
    },
    {
      "constant": true,
      "inputs": [],
      "name": "degreeCounts",
      "outputs": [
        {
          "internalType": "uint256",
          "name": "",
          "type": "uint256"
        }
      ],
      "payable": false,
      "stateMutability": "view",
      "type": "function"
    },
    {
      "constant": true,
      "inputs": [
        {
          "internalType": "address",
          "name": "",
          "type": "address"
        }
      ],
      "name": "degreelist",
      "outputs": [
        {
          "internalType": "address",
          "name": "studentAddress",
          "type": "address"
        },
        {
          "internalType": "uint256",
          "name": "degreeIDlength",
          "type": "uint256"
        }
      ],
      "payable": false,
      "stateMutability": "view",
      "type": "function"
    },
    {
      "constant": true,
      "inputs": [],
      "name": "lastshare",
      "outputs": [
        {
          "internalType": "bool",
          "name": "",
          "type": "bool"
        }
      ],
      "payable": false,
      "stateMutability": "view",
      "type": "function"
    },
    {
      "constant": true,
      "inputs": [],
      "name": "lastsharedel",
      "outputs": [
        {
          "internalType": "bool",
          "name": "",
          "type": "bool"
        }
      ],
      "payable": false,
      "stateMutability": "view",
      "type": "function"
    },
    {
      "constant": true,
      "inputs": [],
      "name": "lastupload",
      "outputs": [
        {
          "internalType": "bool",
          "name": "",
          "type": "bool"
        }
      ],
      "payable": false,
      "stateMutability": "view",
      "type": "function"
    },
    {
      "constant": true,
      "inputs": [],
      "name": "lastview",
      "outputs": [
        {
          "internalType": "bool",
          "name": "",
          "type": "bool"
        }
      ],
      "payable": false,
      "stateMutability": "view",
      "type": "function"
    },
    {
      "constant": true,
      "inputs": [],
      "name": "ownerAddress",
      "outputs": [
        {
          "internalType": "address",
          "name": "",
          "type": "address"
        }
      ],
      "payable": false,
      "stateMutability": "view",
      "type": "function"
    },
    {
      "constant": true,
      "inputs": [
        {
          "internalType": "address",
          "name": "",
          "type": "address"
        }
      ],
      "name": "registeredStudent",
      "outputs": [
        {
          "internalType": "bool",
          "name": "",
          "type": "bool"
        }
      ],
      "payable": false,
      "stateMutability": "view",
      "type": "function"
    },
    {
      "constant": true,
      "inputs": [],
      "name": "shareCounts",
      "outputs": [
        {
          "internalType": "uint256",
          "name": "",
          "type": "uint256"
        }
      ],
      "payable": false,
      "stateMutability": "view",
      "type": "function"
    },
    {
      "constant": true,
      "inputs": [
        {
          "internalType": "uint256",
          "name": "",
          "type": "uint256"
        }
      ],
      "name": "sharelist",
      "outputs": [
        {
          "internalType": "uint256",
          "name": "id",
          "type": "uint256"
        },
        {
          "internalType": "address",
          "name": "studentAddress",
          "type": "address"
        },
        {
          "internalType": "string",
          "name": "degree_name",
          "type": "string"
        },
        {
          "internalType": "string",
          "name": "ipfsHASH",
          "type": "string"
        },
        {
          "internalType": "uint256",
          "name": "shareIDLength",
          "type": "uint256"
        },
        {
          "internalType": "string",
          "name": "orig_ipfsHASH",
          "type": "string"
        },
        {
          "internalType": "bool",
          "name": "visibility",
          "type": "bool"
        }
      ],
      "payable": false,
      "stateMutability": "view",
      "type": "function"
    },
    {
      "constant": true,
      "inputs": [
        {
          "internalType": "address",
          "name": "",
          "type": "address"
        }
      ],
      "name": "std_add",
      "outputs": [
        {
          "internalType": "uint256",
          "name": "id",
          "type": "uint256"
        },
        {
          "internalType": "string",
          "name": "degree_name",
          "type": "string"
        },
        {
          "internalType": "string",
          "name": "year",
          "type": "string"
        },
        {
          "internalType": "string",
          "name": "ipfsHASH",
          "type": "string"
        },
        {
          "internalType": "string",
          "name": "orig_ipfsHASH",
          "type": "string"
        },
        {
          "internalType": "address",
          "name": "studentAddress",
          "type": "address"
        },
        {
          "internalType": "uint256",
          "name": "shareID",
          "type": "uint256"
        }
      ],
      "payable": false,
      "stateMutability": "view",
      "type": "function"
    },
    {
      "constant": true,
      "inputs": [],
      "name": "studentCounts",
      "outputs": [
        {
          "internalType": "uint256",
          "name": "",
          "type": "uint256"
        }
      ],
      "payable": false,
      "stateMutability": "view",
      "type": "function"
    },
    {
      "constant": true,
      "inputs": [
        {
          "internalType": "uint256",
          "name": "",
          "type": "uint256"
        }
      ],
      "name": "studentdegreedetails",
      "outputs": [
        {
          "internalType": "uint256",
          "name": "id",
          "type": "uint256"
        },
        {
          "internalType": "string",
          "name": "degree_name",
          "type": "string"
        },
        {
          "internalType": "string",
          "name": "year",
          "type": "string"
        },
        {
          "internalType": "string",
          "name": "ipfsHASH",
          "type": "string"
        },
        {
          "internalType": "string",
          "name": "orig_ipfsHASH",
          "type": "string"
        },
        {
          "internalType": "address",
          "name": "studentAddress",
          "type": "address"
        },
        {
          "internalType": "uint256",
          "name": "shareID",
          "type": "uint256"
        }
      ],
      "payable": false,
      "stateMutability": "view",
      "type": "function"
    },
    {
      "constant": true,
      "inputs": [
        {
          "internalType": "address",
          "name": "",
          "type": "address"
        }
      ],
      "name": "studentdetail_address",
      "outputs": [
        {
          "internalType": "uint256",
          "name": "id",
          "type": "uint256"
        },
        {
          "internalType": "string",
          "name": "name",
          "type": "string"
        },
        {
          "internalType": "address",
          "name": "studentAddress",
          "type": "address"
        }
      ],
      "payable": false,
      "stateMutability": "view",
      "type": "function"
    },
    {
      "constant": false,
      "inputs": [
        {
          "internalType": "string",
          "name": "_ipfsHASH",
          "type": "string"
        },
        {
          "internalType": "uint256",
          "name": "_index",
          "type": "uint256"
        }
      ],
      "name": "removeShare",
      "outputs": [],
      "payable": false,
      "stateMutability": "nonpayable",
      "type": "function"
    },
    {
      "constant": false,
      "inputs": [
        {
          "internalType": "string",
          "name": "_ipfsHASH",
          "type": "string"
        },
        {
          "internalType": "address",
          "name": "_shareaddress",
          "type": "address"
        }
      ],
      "name": "share",
      "outputs": [],
      "payable": false,
      "stateMutability": "nonpayable",
      "type": "function"
    },
    {
      "constant": false,
      "inputs": [
        {
          "internalType": "string",
          "name": "_ipfsHASH",
          "type": "string"
        }
      ],
      "name": "viewDocVisibility",
      "outputs": [],
      "payable": false,
      "stateMutability": "nonpayable",
      "type": "function"
    },
    {
      "constant": true,
      "inputs": [
        {
          "internalType": "uint256",
          "name": "count",
          "type": "uint256"
        },
        {
          "internalType": "address",
          "name": "_visitoraddress",
          "type": "address"
        },
        {
          "internalType": "string",
          "name": "_ipfsHASH",
          "type": "string"
        }
      ],
      "name": "viewDocCheck",
      "outputs": [
        {
          "internalType": "bool",
          "name": "",
          "type": "bool"
        }
      ],
      "payable": false,
      "stateMutability": "view",
      "type": "function"
    },
    {
      "constant": true,
      "inputs": [
        {
          "internalType": "uint256",
          "name": "_ix",
          "type": "uint256"
        },
        {
          "internalType": "uint256",
          "name": "_ix2",
          "type": "uint256"
        }
      ],
      "name": "viewArray",
      "outputs": [
        {
          "internalType": "address",
          "name": "",
          "type": "address"
        }
      ],
      "payable": false,
      "stateMutability": "view",
      "type": "function"
    },
    {
      "constant": true,
      "inputs": [
        {
          "internalType": "address",
          "name": "_visitoraddress",
          "type": "address"
        },
        {
          "internalType": "string",
          "name": "_ipfsHASH",
          "type": "string"
        }
      ],
      "name": "viewDoc",
      "outputs": [
        {
          "internalType": "string",
          "name": "",
          "type": "string"
        }
      ],
      "payable": false,
      "stateMutability": "view",
      "type": "function"
    },
    {
      "constant": true,
      "inputs": [
        {
          "internalType": "uint256",
          "name": "count",
          "type": "uint256"
        },
        {
          "internalType": "string",
          "name": "_ipfsHash",
          "type": "string"
        }
      ],
      "name": "matchipfs",
      "outputs": [
        {
          "internalType": "uint256",
          "name": "degreeID",
          "type": "uint256"
        }
      ],
      "payable": false,
      "stateMutability": "view",
      "type": "function"
    },
    {
      "constant": false,
      "inputs": [
        {
          "internalType": "string",
          "name": "_ipfsHASH",
          "type": "string"
        }
      ],
      "name": "returnShareList",
      "outputs": [
        {
          "internalType": "address[]",
          "name": "",
          "type": "address[]"
        }
      ],
      "payable": false,
      "stateMutability": "nonpayable",
      "type": "function"
    },
    {
      "constant": true,
      "inputs": [
        {
          "internalType": "address",
          "name": "_addressid",
          "type": "address"
        }
      ],
      "name": "getarr",
      "outputs": [
        {
          "internalType": "uint256",
          "name": "ret",
          "type": "uint256"
        }
      ],
      "payable": false,
      "stateMutability": "view",
      "type": "function"
    },
    {
      "constant": true,
      "inputs": [
        {
          "internalType": "address",
          "name": "_addressid",
          "type": "address"
        }
      ],
      "name": "getname",
      "outputs": [
        {
          "internalType": "string",
          "name": "",
          "type": "string"
        }
      ],
      "payable": false,
      "stateMutability": "view",
      "type": "function"
    },
    {
      "constant": true,
      "inputs": [
        {
          "internalType": "uint256",
          "name": "count",
          "type": "uint256"
        },
        {
          "internalType": "string",
          "name": "_ipfsHash",
          "type": "string"
        },
        {
          "internalType": "address",
          "name": "_addressid",
          "type": "address"
        }
      ],
      "name": "checkipfs",
      "outputs": [
        {
          "internalType": "bool",
          "name": "",
          "type": "bool"
        }
      ],
      "payable": false,
      "stateMutability": "view",
      "type": "function"
    },
    {
      "constant": false,
      "inputs": [
        {
          "internalType": "string",
          "name": "_name",
          "type": "string"
        },
        {
          "internalType": "address",
          "name": "_addressid",
          "type": "address"
        }
      ],
      "name": "admission",
      "outputs": [],
      "payable": false,
      "stateMutability": "nonpayable",
      "type": "function"
    },
    {
      "constant": false,
      "inputs": [
        {
          "internalType": "string",
          "name": "_degree_name",
          "type": "string"
        },
        {
          "internalType": "string",
          "name": "_year",
          "type": "string"
        },
        {
          "internalType": "string",
          "name": "_ipfsHash",
          "type": "string"
        },
        {
          "internalType": "address",
          "name": "_addressid",
          "type": "address"
        },
        {
          "internalType": "string",
          "name": "_orig_ipfsHASH",
          "type": "string"
        }
      ],
      "name": "upload",
      "outputs": [],
      "payable": false,
      "stateMutability": "nonpayable",
      "type": "function"
    },
    {
      "constant": true,
      "inputs": [],
      "name": "getOwenerAddress",
      "outputs": [
        {
          "internalType": "address",
          "name": "",
          "type": "address"
        }
      ],
      "payable": false,
      "stateMutability": "view",
      "type": "function"
    }
  ],
  "bytecode": "0x608060405273049bb561227ace1c8dfed55c4e9386ccb6d637026000806101000a81548173ffffffffffffffffffffffffffffffffffffffff021916908373ffffffffffffffffffffffffffffffffffffffff1602179055506040518060200160405280600160ff1681525060029060016200007d929190620000fe565b506000600f60006101000a81548160ff0219169083151502179055506000600f60016101000a81548160ff0219169083151502179055506001600f60026101000a81548160ff0219169083151502179055506000600f60036101000a81548160ff021916908315150217905550348015620000f757600080fd5b506200017d565b82805482825590600052602060002090810192821562000142579160200282015b8281111562000141578251829060ff169055916020019190600101906200011f565b5b50905062000151919062000155565b5090565b6200017a91905b80821115620001765760008160009055506001016200015c565b5090565b90565b614091806200018d6000396000f3fe608060405234801561001057600080fd5b50600436106101cf5760003560e01c8063a2c0d78f11610104578063c36172b4116100a2578063deb22ace11610071578063deb22ace146116f2578063ee2ea3b8146117cd578063fb3189e814611817578063fef6e5a614611835576101cf565b8063c36172b4146113f4578063c5a765871461146c578063d45aa73c1461148e578063de732c9f146116d0576101cf565b8063b0c5e8ce116100de578063b0c5e8ce14610e6e578063b733292214610f47578063b9a9c1f514611057578063c2d9c5a6146112f7576101cf565b8063a2c0d78f14610b70578063a991ccd214610d3b578063aaf2e1d714610d93576101cf565b80634a94d71d1161017157806376c40cb61161014b57806376c40cb61461087f57806387129f8b146109d35780638f84aa0914610a2f578063922b87cd14610a79576101cf565b80634a94d71d146106025780634d9fe08b146106ff5780635dd8ee19146107c4576101cf565b806319eb815e116101ad57806319eb815e1461047a57806334db84c6146105055780634453efc0146105235780634742add114610545576101cf565b806301622b89146101d45780630e877cb4146101f257806318f6f9401461041e575b600080fd5b6101dc611857565b6040518082815260200191505060405180910390f35b61021e6004803603602081101561020857600080fd5b810190808035906020019092919050505061185d565b60405180888152602001806020018060200180602001806020018773ffffffffffffffffffffffffffffffffffffffff1673ffffffffffffffffffffffffffffffffffffffff16815260200186815260200185810385528b818151815260200191508051906020019080838360005b838110156102a857808201518184015260208101905061028d565b50505050905090810190601f1680156102d55780820380516001836020036101000a031916815260200191505b5085810384528a818151815260200191508051906020019080838360005b8381101561030e5780820151818401526020810190506102f3565b50505050905090810190601f16801561033b5780820380516001836020036101000a031916815260200191505b50858103835289818151815260200191508051906020019080838360005b83811015610374578082015181840152602081019050610359565b50505050905090810190601f1680156103a15780820380516001836020036101000a031916815260200191505b50858103825288818151815260200191508051906020019080838360005b838110156103da5780820151818401526020810190506103bf565b50505050905090810190601f1680156104075780820380516001836020036101000a031916815260200191505b509b50505050505050505050505060405180910390f35b6104606004803603602081101561043457600080fd5b81019080803573ffffffffffffffffffffffffffffffffffffffff169060200190929190505050611b1f565b604051808215151515815260200191505060405180910390f35b6104bc6004803603602081101561049057600080fd5b81019080803573ffffffffffffffffffffffffffffffffffffffff169060200190929190505050611b3f565b604051808373ffffffffffffffffffffffffffffffffffffffff1673ffffffffffffffffffffffffffffffffffffffff1681526020018281526020019250505060405180910390f35b61050d611b83565b6040518082815260200191505060405180910390f35b61052b611b89565b604051808215151515815260200191505060405180910390f35b6105876004803603602081101561055b57600080fd5b81019080803573ffffffffffffffffffffffffffffffffffffffff169060200190929190505050611b9c565b6040518080602001828103825283818151815260200191508051906020019080838360005b838110156105c75780820151818401526020810190506105ac565b50505050905090810190601f1680156105f45780820380516001836020036101000a031916815260200191505b509250505060405180910390f35b6106e56004803603606081101561061857600080fd5b8101908080359060200190929190803573ffffffffffffffffffffffffffffffffffffffff1690602001909291908035906020019064010000000081111561065f57600080fd5b82018360208201111561067157600080fd5b8035906020019184600183028401116401000000008311171561069357600080fd5b91908080601f016020809104026020016040519081016040528093929190818152602001838380828437600081840152601f19601f820116905080830192505050505050509192919290505050611c80565b604051808215151515815260200191505060405180910390f35b6107c26004803603604081101561071557600080fd5b810190808035906020019064010000000081111561073257600080fd5b82018360208201111561074457600080fd5b8035906020019184600183028401116401000000008311171561076657600080fd5b91908080601f016020809104026020016040519081016040528093929190818152602001838380828437600081840152601f19601f82011690508083019250505050505050919291929080359060200190929190505050611db8565b005b61087d600480360360208110156107da57600080fd5b81019080803590602001906401000000008111156107f757600080fd5b82018360208201111561080957600080fd5b8035906020019184600183028401116401000000008311171561082b57600080fd5b91908080601f016020809104026020016040519081016040528093929190818152602001838380828437600081840152601f19601f820116905080830192505050505050509192919290505050611f40565b005b6109586004803603604081101561089557600080fd5b81019080803573ffffffffffffffffffffffffffffffffffffffff169060200190929190803590602001906401000000008111156108d257600080fd5b8201836020820111156108e457600080fd5b8035906020019184600183028401116401000000008311171561090657600080fd5b91908080601f016020809104026020016040519081016040528093929190818152602001838380828437600081840152601f19601f820116905080830192505050505050509192919290505050612001565b6040518080602001828103825283818151815260200191508051906020019080838360005b8381101561099857808201518184015260208101905061097d565b50505050905090810190601f1680156109c55780820380516001836020036101000a031916815260200191505b509250505060405180910390f35b610a15600480360360208110156109e957600080fd5b81019080803573ffffffffffffffffffffffffffffffffffffffff169060200190929190505050612129565b604051808215151515815260200191505060405180910390f35b610a37612149565b604051808273ffffffffffffffffffffffffffffffffffffffff1673ffffffffffffffffffffffffffffffffffffffff16815260200191505060405180910390f35b610abb60048036036020811015610a8f57600080fd5b81019080803573ffffffffffffffffffffffffffffffffffffffff16906020019092919050505061216e565b60405180848152602001806020018373ffffffffffffffffffffffffffffffffffffffff1673ffffffffffffffffffffffffffffffffffffffff168152602001828103825284818151815260200191508051906020019080838360005b83811015610b33578082015181840152602081019050610b18565b50505050905090810190601f168015610b605780820380516001836020036101000a031916815260200191505b5094505050505060405180910390f35b610b9c60048036036020811015610b8657600080fd5b8101908080359060200190929190505050612250565b604051808881526020018773ffffffffffffffffffffffffffffffffffffffff1673ffffffffffffffffffffffffffffffffffffffff16815260200180602001806020018681526020018060200185151515158152602001848103845289818151815260200191508051906020019080838360005b83811015610c2c578082015181840152602081019050610c11565b50505050905090810190601f168015610c595780820380516001836020036101000a031916815260200191505b50848103835288818151815260200191508051906020019080838360005b83811015610c92578082015181840152602081019050610c77565b50505050905090810190601f168015610cbf5780820380516001836020036101000a031916815260200191505b50848103825286818151815260200191508051906020019080838360005b83811015610cf8578082015181840152602081019050610cdd565b50505050905090810190601f168015610d255780820380516001836020036101000a031916815260200191505b509a505050505050505050505060405180910390f35b610d7d60048036036020811015610d5157600080fd5b81019080803573ffffffffffffffffffffffffffffffffffffffff169060200190929190505050612487565b6040518082815260200191505060405180910390f35b610e6c60048036036040811015610da957600080fd5b8101908080359060200190640100000000811115610dc657600080fd5b820183602082011115610dd857600080fd5b80359060200191846001830284011164010000000083111715610dfa57600080fd5b91908080601f016020809104026020016040519081016040528093929190818152602001838380828437600081840152601f19601f820116905080830192505050505050509192919290803573ffffffffffffffffffffffffffffffffffffffff169060200190929190505050612532565b005b610f3160048036036040811015610e8457600080fd5b810190808035906020019092919080359060200190640100000000811115610eab57600080fd5b820183602082011115610ebd57600080fd5b80359060200191846001830284011164010000000083111715610edf57600080fd5b91908080601f016020809104026020016040519081016040528093929190818152602001838380828437600081840152601f19601f820116905080830192505050505050509192919290505050612637565b6040518082815260200191505060405180910390f35b61100060048036036020811015610f5d57600080fd5b8101908080359060200190640100000000811115610f7a57600080fd5b820183602082011115610f8c57600080fd5b80359060200191846001830284011164010000000083111715610fae57600080fd5b91908080601f016020809104026020016040519081016040528093929190818152602001838380828437600081840152601f19601f8201169050808301925050505050505091929192905050506126fd565b6040518080602001828103825283818151815260200191508051906020019060200280838360005b83811015611043578082015181840152602081019050611028565b505050509050019250505060405180910390f35b6112f5600480360360a081101561106d57600080fd5b810190808035906020019064010000000081111561108a57600080fd5b82018360208201111561109c57600080fd5b803590602001918460018302840111640100000000831117156110be57600080fd5b91908080601f016020809104026020016040519081016040528093929190818152602001838380828437600081840152601f19601f8201169050808301925050505050505091929192908035906020019064010000000081111561112157600080fd5b82018360208201111561113357600080fd5b8035906020019184600183028401116401000000008311171561115557600080fd5b91908080601f016020809104026020016040519081016040528093929190818152602001838380828437600081840152601f19601f820116905080830192505050505050509192919290803590602001906401000000008111156111b857600080fd5b8201836020820111156111ca57600080fd5b803590602001918460018302840111640100000000831117156111ec57600080fd5b91908080601f016020809104026020016040519081016040528093929190818152602001838380828437600081840152601f19601f820116905080830192505050505050509192919290803573ffffffffffffffffffffffffffffffffffffffff1690602001909291908035906020019064010000000081111561126f57600080fd5b82018360208201111561128157600080fd5b803590602001918460018302840111640100000000831117156112a357600080fd5b91908080601f016020809104026020016040519081016040528093929190818152602001838380828437600081840152601f19601f8201169050808301925050505050505091929192905050506127cc565b005b6113da6004803603606081101561130d57600080fd5b81019080803590602001909291908035906020019064010000000081111561133457600080fd5b82018360208201111561134657600080fd5b8035906020019184600183028401116401000000008311171561136857600080fd5b91908080601f016020809104026020016040519081016040528093929190818152602001838380828437600081840152601f19601f820116905080830192505050505050509192919290803573ffffffffffffffffffffffffffffffffffffffff1690602001909291905050506135f8565b604051808215151515815260200191505060405180910390f35b61142a6004803603604081101561140a57600080fd5b81019080803590602001909291908035906020019092919050505061375a565b604051808273ffffffffffffffffffffffffffffffffffffffff1673ffffffffffffffffffffffffffffffffffffffff16815260200191505060405180910390f35b6114746137b0565b604051808215151515815260200191505060405180910390f35b6114d0600480360360208110156114a457600080fd5b81019080803573ffffffffffffffffffffffffffffffffffffffff1690602001909291905050506137c3565b60405180888152602001806020018060200180602001806020018773ffffffffffffffffffffffffffffffffffffffff1673ffffffffffffffffffffffffffffffffffffffff16815260200186815260200185810385528b818151815260200191508051906020019080838360005b8381101561155a57808201518184015260208101905061153f565b50505050905090810190601f1680156115875780820380516001836020036101000a031916815260200191505b5085810384528a818151815260200191508051906020019080838360005b838110156115c05780820151818401526020810190506115a5565b50505050905090810190601f1680156115ed5780820380516001836020036101000a031916815260200191505b50858103835289818151815260200191508051906020019080838360005b8381101561162657808201518184015260208101905061160b565b50505050905090810190601f1680156116535780820380516001836020036101000a031916815260200191505b50858103825288818151815260200191508051906020019080838360005b8381101561168c578082015181840152602081019050611671565b50505050905090810190601f1680156116b95780820380516001836020036101000a031916815260200191505b509b50505050505050505050505060405180910390f35b6116d8613a85565b604051808215151515815260200191505060405180910390f35b6117cb6004803603604081101561170857600080fd5b810190808035906020019064010000000081111561172557600080fd5b82018360208201111561173757600080fd5b8035906020019184600183028401116401000000008311171561175957600080fd5b91908080601f016020809104026020016040519081016040528093929190818152602001838380828437600081840152601f19601f820116905080830192505050505050509192919290803573ffffffffffffffffffffffffffffffffffffffff169060200190929190505050613a98565b005b6117d5613c95565b604051808273ffffffffffffffffffffffffffffffffffffffff1673ffffffffffffffffffffffffffffffffffffffff16815260200191505060405180910390f35b61181f613cbe565b6040518082815260200191505060405180910390f35b61183d613cc4565b604051808215151515815260200191505060405180910390f35b600c5481565b6007602052806000526040600020600091509050806000015490806001018054600181600116156101000203166002900480601f01602080910402602001604051908101604052809291908181526020018280546001816001161561010002031660029004801561190f5780601f106118e45761010080835404028352916020019161190f565b820191906000526020600020905b8154815290600101906020018083116118f257829003601f168201915b505050505090806002018054600181600116156101000203166002900480601f0160208091040260200160405190810160405280929190818152602001828054600181600116156101000203166002900480156119ad5780601f10611982576101008083540402835291602001916119ad565b820191906000526020600020905b81548152906001019060200180831161199057829003601f168201915b505050505090806003018054600181600116156101000203166002900480601f016020809104026020016040519081016040528092919081815260200182805460018160011615610100020316600290048015611a4b5780601f10611a2057610100808354040283529160200191611a4b565b820191906000526020600020905b815481529060010190602001808311611a2e57829003601f168201915b505050505090806004018054600181600116156101000203166002900480601f016020809104026020016040519081016040528092919081815260200182805460018160011615610100020316600290048015611ae95780601f10611abe57610100808354040283529160200191611ae9565b820191906000526020600020905b815481529060010190602001808311611acc57829003601f168201915b5050505050908060050160009054906101000a900473ffffffffffffffffffffffffffffffffffffffff16908060060154905087565b60066020528060005260406000206000915054906101000a900460ff1681565b600a6020528060005260406000206000915090508060000160009054906101000a900473ffffffffffffffffffffffffffffffffffffffff16908060010154905082565b600e5481565b600f60009054906101000a900460ff1681565b6060600960008373ffffffffffffffffffffffffffffffffffffffff1673ffffffffffffffffffffffffffffffffffffffff1681526020019081526020016000206001018054600181600116156101000203166002900480601f016020809104026020016040519081016040528092919081815260200182805460018160011615610100020316600290048015611c745780601f10611c4957610100808354040283529160200191611c74565b820191906000526020600020905b815481529060010190602001808311611c5757829003601f168201915b50505050509050919050565b600080611c8e600184612637565b14611dac57600b6000611ca2600185612637565b815260200190815260200160002060040154841415611cc45760009050611db1565b600b6000611cd3600185612637565b815260200190815260200160002060060160009054906101000a900460ff1615611d005760019050611db1565b8273ffffffffffffffffffffffffffffffffffffffff16600b6000611d26600186612637565b81526020019081526020016000206007018581548110611d4257fe5b9060005260206000200160009054906101000a900473ffffffffffffffffffffffffffffffffffffffff1673ffffffffffffffffffffffffffffffffffffffff161415611d925760019050611db1565b8380600101945050611da5848484611c80565b9050611db1565b600090505b9392505050565b611dc3600183612637565b600481905550600060045414611f2057600b600060045481526020019081526020016000206007016001600b60006004548152602001908152602001600020600701805490500381548110611e1457fe5b9060005260206000200160009054906101000a900473ffffffffffffffffffffffffffffffffffffffff16600b600060045481526020019081526020016000206007018281548110611e6257fe5b9060005260206000200160006101000a81548173ffffffffffffffffffffffffffffffffffffffff021916908373ffffffffffffffffffffffffffffffffffffffff160217905550600b60006004548152602001908152602001600020600701805480611ecb57fe5b6001900381819060005260206000200160006101000a81549073ffffffffffffffffffffffffffffffffffffffff021916905590556001600f60036101000a81548160ff021916908315150217905550611f3c565b6000600f60036101000a81548160ff0219169083151502179055505b5050565b6000611f4d600183612637565b14611ffe57600b6000611f61600184612637565b815260200190815260200160002060060160009054906101000a900460ff1615611fc3576000600b6000611f96600185612637565b815260200190815260200160002060060160006101000a81548160ff021916908315150217905550611ffd565b6001600b6000611fd4600185612637565b815260200190815260200160002060060160006101000a81548160ff0219169083151502179055505b5b50565b606061200f60008484611c80565b156120ea57600b600060076000612027600187612637565b81526020019081526020016000206006015481526020019081526020016000206005018054600181600116156101000203166002900480601f0160208091040260200160405190810160405280929190818152602001828054600181600116156101000203166002900480156120de5780601f106120b3576101008083540402835291602001916120de565b820191906000526020600020905b8154815290600101906020018083116120c157829003601f168201915b50505050509050612123565b6040518060400160405280600981526020017f4e6f20416363657373000000000000000000000000000000000000000000000081525090505b92915050565b60056020528060005260406000206000915054906101000a900460ff1681565b6000809054906101000a900473ffffffffffffffffffffffffffffffffffffffff1681565b6009602052806000526040600020600091509050806000015490806001018054600181600116156101000203166002900480601f0160208091040260200160405190810160405280929190818152602001828054600181600116156101000203166002900480156122205780601f106121f557610100808354040283529160200191612220565b820191906000526020600020905b81548152906001019060200180831161220357829003601f168201915b5050505050908060020160009054906101000a900473ffffffffffffffffffffffffffffffffffffffff16905083565b600b6020528060005260406000206000915090508060000154908060010160009054906101000a900473ffffffffffffffffffffffffffffffffffffffff1690806002018054600181600116156101000203166002900480601f0160208091040260200160405190810160405280929190818152602001828054600181600116156101000203166002900480156123285780601f106122fd57610100808354040283529160200191612328565b820191906000526020600020905b81548152906001019060200180831161230b57829003601f168201915b505050505090806003018054600181600116156101000203166002900480601f0160208091040260200160405190810160405280929190818152602001828054600181600116156101000203166002900480156123c65780601f1061239b576101008083540402835291602001916123c6565b820191906000526020600020905b8154815290600101906020018083116123a957829003601f168201915b505050505090806004015490806005018054600181600116156101000203166002900480601f01602080910402602001604051908101604052809291908181526020018280546001816001161561010002031660029004801561246a5780601f1061243f5761010080835404028352916020019161246a565b820191906000526020600020905b81548152906001019060200180831161244d57829003601f168201915b5050505050908060060160009054906101000a900460ff16905087565b6000806001600a60008573ffffffffffffffffffffffffffffffffffffffff1673ffffffffffffffffffffffffffffffffffffffff16815260200190815260200160002060010154039050600a60008473ffffffffffffffffffffffffffffffffffffffff1673ffffffffffffffffffffffffffffffffffffffff168152602001908152602001600020600201818154811061251f57fe5b9060005260206000200154915050919050565b600061253f600184612637565b14612617576001600b6000612555600186612637565b815260200190815260200160002060040160008282540192505081905550600b6000612582600185612637565b81526020019081526020016000206007018190806001815401808255809150509060018203906000526020600020016000909192909190916101000a81548173ffffffffffffffffffffffffffffffffffffffff021916908373ffffffffffffffffffffffffffffffffffffffff160217905550506001600f60016101000a81548160ff021916908315150217905550612633565b6000600f60016101000a81548160ff0219169083151502179055505b5050565b6000826001600c5401146126f25781805190602001206007600085815260200190815260200160002060030160405180828054600181600116156101000203166002900480156126be5780601f1061269c5761010080835404028352918201916126be565b820191906000526020600020905b8154815290600101906020018083116126aa575b5050915050604051809103902014156126d9578290506126f7565b82806001019350506126eb8383612637565b90506126f7565b600090505b92915050565b606061270a600183612637565b6004819055506000600454146127be57600b600060045481526020019081526020016000206007018054806020026020016040519081016040528092919081815260200182805480156127b257602002820191906000526020600020905b8160009054906101000a900473ffffffffffffffffffffffffffffffffffffffff1673ffffffffffffffffffffffffffffffffffffffff1681526020019060010190808311612768575b505050505090506127c7565b60006004819055505b919050565b600660008373ffffffffffffffffffffffffffffffffffffffff1673ffffffffffffffffffffffffffffffffffffffff16815260200190815260200160002060009054906101000a900460ff16801561287157503373ffffffffffffffffffffffffffffffffffffffff166000809054906101000a900473ffffffffffffffffffffffffffffffffffffffff1673ffffffffffffffffffffffffffffffffffffffff16145b156135d557600560008373ffffffffffffffffffffffffffffffffffffffff1673ffffffffffffffffffffffffffffffffffffffff16815260200190815260200160002060009054906101000a900460ff16612f20576128d382600c54613cd7565b600c60008154809291906001019190505550600e60008154809291906001019190505550604051806101000160405280600e5481526020018373ffffffffffffffffffffffffffffffffffffffff1681526020018681526020018481526020016000815260200182815260200160001515815260200160018054806020026020016040519081016040528092919081815260200182805480156129cb57602002820191906000526020600020905b8160009054906101000a900473ffffffffffffffffffffffffffffffffffffffff1673ffffffffffffffffffffffffffffffffffffffff1681526020019060010190808311612981575b5050505050815250600b6000600e5481526020019081526020016000206000820151816000015560208201518160010160006101000a81548173ffffffffffffffffffffffffffffffffffffffff021916908373ffffffffffffffffffffffffffffffffffffffff1602179055506040820151816002019080519060200190612a55929190613e9d565b506060820151816003019080519060200190612a72929190613e9d565b506080820151816004015560a0820151816005019080519060200190612a99929190613e9d565b5060c08201518160060160006101000a81548160ff02191690831515021790555060e0820151816007019080519060200190612ad6929190613f1d565b509050506040518060e00160405280600c5481526020018681526020018581526020018481526020018281526020018373ffffffffffffffffffffffffffffffffffffffff168152602001600e5481525060076000600c548152602001908152602001600020600082015181600001556020820151816001019080519060200190612b62929190613e9d565b506040820151816002019080519060200190612b7f929190613e9d565b506060820151816003019080519060200190612b9c929190613e9d565b506080820151816004019080519060200190612bb9929190613e9d565b5060a08201518160050160006101000a81548173ffffffffffffffffffffffffffffffffffffffff021916908373ffffffffffffffffffffffffffffffffffffffff16021790555060c082015181600601559050506040518060e00160405280600c5481526020018681526020018581526020018481526020018281526020018373ffffffffffffffffffffffffffffffffffffffff168152602001600e54815250600860008473ffffffffffffffffffffffffffffffffffffffff1673ffffffffffffffffffffffffffffffffffffffff168152602001908152602001600020600082015181600001556020820151816001019080519060200190612cc0929190613e9d565b506040820151816002019080519060200190612cdd929190613e9d565b506060820151816003019080519060200190612cfa929190613e9d565b506080820151816004019080519060200190612d17929190613e9d565b5060a08201518160050160006101000a81548173ffffffffffffffffffffffffffffffffffffffff021916908373ffffffffffffffffffffffffffffffffffffffff16021790555060c0820151816006015590505060405180606001604052808373ffffffffffffffffffffffffffffffffffffffff168152602001600181526020016002805480602002602001604051908101604052809291908181526020018280548015612de657602002820191906000526020600020905b815481526020019060010190808311612dd2575b5050505050815250600a60008473ffffffffffffffffffffffffffffffffffffffff1673ffffffffffffffffffffffffffffffffffffffff16815260200190815260200160002060008201518160000160006101000a81548173ffffffffffffffffffffffffffffffffffffffff021916908373ffffffffffffffffffffffffffffffffffffffff160217905550602082015181600101556040820151816002019080519060200190612e9a929190613fa7565b509050506001600560008473ffffffffffffffffffffffffffffffffffffffff1673ffffffffffffffffffffffffffffffffffffffff16815260200190815260200160002060006101000a81548160ff0219169083151502179055506001600f60006101000a81548160ff021916908315150217905550612f1b8383613d98565b6135d0565b612f2c600084846135f8565b156135b357612f3d82600c54613cd7565b600c60008154809291906001019190505550600e60008154809291906001019190505550604051806101000160405280600e5481526020018373ffffffffffffffffffffffffffffffffffffffff16815260200186815260200184815260200160008152602001828152602001600015158152602001600180548060200260200160405190810160405280929190818152602001828054801561303557602002820191906000526020600020905b8160009054906101000a900473ffffffffffffffffffffffffffffffffffffffff1673ffffffffffffffffffffffffffffffffffffffff1681526020019060010190808311612feb575b5050505050815250600b6000600e5481526020019081526020016000206000820151816000015560208201518160010160006101000a81548173ffffffffffffffffffffffffffffffffffffffff021916908373ffffffffffffffffffffffffffffffffffffffff16021790555060408201518160020190805190602001906130bf929190613e9d565b5060608201518160030190805190602001906130dc929190613e9d565b506080820151816004015560a0820151816005019080519060200190613103929190613e9d565b5060c08201518160060160006101000a81548160ff02191690831515021790555060e0820151816007019080519060200190613140929190613f1d565b509050506040518060e00160405280600c5481526020018681526020018581526020018481526020018281526020018373ffffffffffffffffffffffffffffffffffffffff168152602001600e5481525060076000600c5481526020019081526020016000206000820151816000015560208201518160010190805190602001906131cc929190613e9d565b5060408201518160020190805190602001906131e9929190613e9d565b506060820151816003019080519060200190613206929190613e9d565b506080820151816004019080519060200190613223929190613e9d565b5060a08201518160050160006101000a81548173ffffffffffffffffffffffffffffffffffffffff021916908373ffffffffffffffffffffffffffffffffffffffff16021790555060c082015181600601559050506040518060e00160405280600c5481526020018681526020018581526020018481526020018281526020018373ffffffffffffffffffffffffffffffffffffffff168152602001600e54815250600860008473ffffffffffffffffffffffffffffffffffffffff1673ffffffffffffffffffffffffffffffffffffffff16815260200190815260200160002060008201518160000155602082015181600101908051906020019061332a929190613e9d565b506040820151816002019080519060200190613347929190613e9d565b506060820151816003019080519060200190613364929190613e9d565b506080820151816004019080519060200190613381929190613e9d565b5060a08201518160050160006101000a81548173ffffffffffffffffffffffffffffffffffffffff021916908373ffffffffffffffffffffffffffffffffffffffff16021790555060c0820151816006015590505060405180606001604052808373ffffffffffffffffffffffffffffffffffffffff168152602001600a60008573ffffffffffffffffffffffffffffffffffffffff1673ffffffffffffffffffffffffffffffffffffffff168152602001908152602001600020600101548152602001600a60008573ffffffffffffffffffffffffffffffffffffffff1673ffffffffffffffffffffffffffffffffffffffff1681526020019081526020016000206002018054806020026020016040519081016040528092919081815260200182805480156134d157602002820191906000526020600020905b8154815260200190600101908083116134bd575b5050505050815250600a60008473ffffffffffffffffffffffffffffffffffffffff1673ffffffffffffffffffffffffffffffffffffffff16815260200190815260200160002060008201518160000160006101000a81548173ffffffffffffffffffffffffffffffffffffffff021916908373ffffffffffffffffffffffffffffffffffffffff160217905550602082015181600101556040820151816002019080519060200190613585929190613fa7565b509050506001600f60006101000a81548160ff0219169083151502179055506135ae8383613d98565b6135cf565b6000600f60006101000a81548160ff0219169083151502179055505b5b6135f1565b6000600f60006101000a81548160ff0219169083151502179055505b5050505050565b600080600a60008473ffffffffffffffffffffffffffffffffffffffff1673ffffffffffffffffffffffffffffffffffffffff16815260200190815260200160002060010154111561374e57600a60008373ffffffffffffffffffffffffffffffffffffffff1673ffffffffffffffffffffffffffffffffffffffff1681526020019081526020016000206001015484141561369b576000935060009050613753565b8380600101945050828051906020012060076000868152602001908152602001600020600301604051808280546001816001161561010002031660029004801561371c5780601f106136fa57610100808354040283529182019161371c565b820191906000526020600020905b815481529060010190602001808311613708575b5050915050604051809103902014156137415761373a8484846135f8565b9050613753565b6000935060019050613753565b600090505b9392505050565b6000600b6000848152602001908152602001600020600701828154811061377d57fe5b9060005260206000200160009054906101000a900473ffffffffffffffffffffffffffffffffffffffff16905092915050565b600f60039054906101000a900460ff1681565b6008602052806000526040600020600091509050806000015490806001018054600181600116156101000203166002900480601f0160208091040260200160405190810160405280929190818152602001828054600181600116156101000203166002900480156138755780601f1061384a57610100808354040283529160200191613875565b820191906000526020600020905b81548152906001019060200180831161385857829003601f168201915b505050505090806002018054600181600116156101000203166002900480601f0160208091040260200160405190810160405280929190818152602001828054600181600116156101000203166002900480156139135780601f106138e857610100808354040283529160200191613913565b820191906000526020600020905b8154815290600101906020018083116138f657829003601f168201915b505050505090806003018054600181600116156101000203166002900480601f0160208091040260200160405190810160405280929190818152602001828054600181600116156101000203166002900480156139b15780601f10613986576101008083540402835291602001916139b1565b820191906000526020600020905b81548152906001019060200180831161399457829003601f168201915b505050505090806004018054600181600116156101000203166002900480601f016020809104026020016040519081016040528092919081815260200182805460018160011615610100020316600290048015613a4f5780601f10613a2457610100808354040283529160200191613a4f565b820191906000526020600020905b815481529060010190602001808311613a3257829003601f168201915b5050505050908060050160009054906101000a900473ffffffffffffffffffffffffffffffffffffffff16908060060154905087565b600f60019054906101000a900460ff1681565b600660008273ffffffffffffffffffffffffffffffffffffffff1673ffffffffffffffffffffffffffffffffffffffff16815260200190815260200160002060009054906101000a900460ff16158015613b3e57503373ffffffffffffffffffffffffffffffffffffffff166000809054906101000a900473ffffffffffffffffffffffffffffffffffffffff1673ffffffffffffffffffffffffffffffffffffffff16145b15613c9157600d600081548092919060010191905055506040518060600160405280600c5481526020018381526020018273ffffffffffffffffffffffffffffffffffffffff16815250600960008373ffffffffffffffffffffffffffffffffffffffff1673ffffffffffffffffffffffffffffffffffffffff168152602001908152602001600020600082015181600001556020820151816001019080519060200190613bed929190613e9d565b5060408201518160020160006101000a81548173ffffffffffffffffffffffffffffffffffffffff021916908373ffffffffffffffffffffffffffffffffffffffff1602179055509050506001600660008373ffffffffffffffffffffffffffffffffffffffff1673ffffffffffffffffffffffffffffffffffffffff16815260200190815260200160002060006101000a81548160ff0219169083151502179055505b5050565b60008060009054906101000a900473ffffffffffffffffffffffffffffffffffffffff16905090565b600d5481565b600f60029054906101000a900460ff1681565b6001600a60008473ffffffffffffffffffffffffffffffffffffffff1673ffffffffffffffffffffffffffffffffffffffff16815260200190815260200160002060010160008282540192505081905550600a60008373ffffffffffffffffffffffffffffffffffffffff1673ffffffffffffffffffffffffffffffffffffffff1681526020019081526020016000206002018190806001815401808255809150509060018203906000526020600020016000909192909190915055505050565b6000613da5600184612637565b14613e7d576001600b6000613dbb600186612637565b815260200190815260200160002060040160008282540192505081905550600b6000613de8600185612637565b81526020019081526020016000206007018190806001815401808255809150509060018203906000526020600020016000909192909190916101000a81548173ffffffffffffffffffffffffffffffffffffffff021916908373ffffffffffffffffffffffffffffffffffffffff160217905550506001600f60016101000a81548160ff021916908315150217905550613e99565b6000600f60016101000a81548160ff0219169083151502179055505b5050565b828054600181600116156101000203166002900490600052602060002090601f016020900481019282601f10613ede57805160ff1916838001178555613f0c565b82800160010185558215613f0c579182015b82811115613f0b578251825591602001919060010190613ef0565b5b509050613f199190613ff4565b5090565b828054828255906000526020600020908101928215613f96579160200282015b82811115613f955782518260006101000a81548173ffffffffffffffffffffffffffffffffffffffff021916908373ffffffffffffffffffffffffffffffffffffffff16021790555091602001919060010190613f3d565b5b509050613fa39190614019565b5090565b828054828255906000526020600020908101928215613fe3579160200282015b82811115613fe2578251825591602001919060010190613fc7565b5b509050613ff09190613ff4565b5090565b61401691905b80821115614012576000816000905550600101613ffa565b5090565b90565b61405991905b8082111561405557600081816101000a81549073ffffffffffffffffffffffffffffffffffffffff02191690555060010161401f565b5090565b9056fea265627a7a72315820e9bde9b50a93ac9cbfc347798b9409169642a631a492c3b15249aab4c236524864736f6c63430005100032",
  "source": "pragma solidity ^0.5.0;\r\n\r\ncontract Univ {\r\n    \r\n    // address public ownerAddress = 0x5B38Da6a701c568545dCfcB03FcB875f56beddC4;\r\n    address public ownerAddress = 0x049bB561227Ace1c8dFED55C4E9386cCb6D63702;\r\n    \r\n    struct StudentDetails {\r\n        uint id;\r\n        string name;\r\n        address studentAddress;\r\n    }\r\n    \r\n    struct StudentDegreeDetails {\r\n        uint id;\r\n        string degree_name;\r\n        string year;\r\n        string ipfsHASH;\r\n        string orig_ipfsHASH;\r\n        address studentAddress;\r\n        uint shareID;\r\n    }\r\n    \r\n    struct StudentDegreeDetails_Address {\r\n        uint id;\r\n        string degree_name;\r\n        string year;\r\n        string ipfsHASH;\r\n        string orig_ipfsHASH;\r\n        address studentAddress;\r\n        uint shareID;\r\n    }\r\n    \r\n    struct DegreeList {\r\n        address studentAddress;\r\n        uint degreeIDlength;\r\n        uint[] degreeID;\r\n    }\r\n    \r\n    struct ShareList {\r\n        uint id;\r\n        address studentAddress;\r\n        string degree_name;\r\n        string ipfsHASH;\r\n        uint shareIDLength;\r\n        string orig_ipfsHASH;\r\n        bool visibility;\r\n        address[] shareIDs;\r\n    }\r\n    \r\n    address[] tempstring;\r\n    uint[] temp = [1];\r\n    address[] array;\r\n    uint tempData;\r\n    \r\n    mapping(address => bool) public degreeCompleted;\r\n    mapping(address => bool) public registeredStudent;\r\n    mapping(uint => StudentDegreeDetails) public studentdegreedetails;\r\n    mapping(address => StudentDegreeDetails_Address) public std_add;\r\n    mapping(address => StudentDetails) public studentdetail_address;\r\n    mapping(address => DegreeList) public degreelist;\r\n    mapping(uint => ShareList) public sharelist;\r\n\r\n    uint public degreeCounts;\r\n    uint public studentCounts;\r\n    uint public shareCounts;\r\n    bool public lastupload = false;\r\n    bool public lastshare = false;\r\n    bool public lastview = true;\r\n    bool public lastsharedel = false;\r\n    \r\n    \r\n    function getdegreeIDarr(address _addressid,uint _studentCount) private{\r\n        degreelist[_addressid].degreeIDlength+=1;\r\n        degreelist[_addressid].degreeID.push(_studentCount);\r\n    }\r\n    \r\n    function shareAtUpload(string memory _ipfsHASH, address _shareaddress) private{\r\n        if(matchipfs(1, _ipfsHASH)!=0){\r\n            sharelist[matchipfs(1, _ipfsHASH)].shareIDLength+=1;\r\n            sharelist[matchipfs(1, _ipfsHASH)].shareIDs.push(_shareaddress);\r\n            lastshare = true;\r\n        }else lastshare = false;\r\n    }\r\n    \r\n    function removeShare(string memory _ipfsHASH, uint _index) public{\r\n        tempData = matchipfs(1, _ipfsHASH);\r\n        if(tempData!=0){\r\n            sharelist[tempData].shareIDs[_index] = sharelist[tempData].shareIDs[sharelist[tempData].shareIDs.length-1];\r\n            sharelist[tempData].shareIDs.pop();\r\n            lastsharedel = true;\r\n        }else lastsharedel = false;\r\n    }\r\n    \r\n    function share(string memory _ipfsHASH, address _shareaddress) public{\r\n        if(matchipfs(1, _ipfsHASH)!=0){\r\n            sharelist[matchipfs(1, _ipfsHASH)].shareIDLength+=1;\r\n            sharelist[matchipfs(1, _ipfsHASH)].shareIDs.push(_shareaddress);\r\n            lastshare = true;\r\n        }else lastshare = false;\r\n    }\r\n    \r\n    function viewDocVisibility(string memory _ipfsHASH) public{\r\n        if(matchipfs(1, _ipfsHASH)!=0){\r\n            if(sharelist[matchipfs(1, _ipfsHASH)].visibility){\r\n                sharelist[matchipfs(1, _ipfsHASH)].visibility=false;\r\n            } else {\r\n                sharelist[matchipfs(1, _ipfsHASH)].visibility=true;\r\n            }\r\n        }\r\n    }\r\n    \r\n    function viewDocCheck(uint count, address _visitoraddress, string memory _ipfsHASH) public view returns (bool){\r\n        if(matchipfs(1, _ipfsHASH)!=0){\r\n            if(count==sharelist[matchipfs(1, _ipfsHASH)].shareIDLength){\r\n                return false;\r\n            }else{\r\n                if(sharelist[matchipfs(1, _ipfsHASH)].visibility){\r\n                    return true;\r\n                } else {\r\n                    if(sharelist[matchipfs(1, _ipfsHASH)].shareIDs[count] == _visitoraddress){\r\n                        return true;\r\n                    }else{\r\n                        count++;\r\n                        return viewDocCheck(count, _visitoraddress, _ipfsHASH);\r\n                    }\r\n                }\r\n            }\r\n        }else return false;\r\n    }\r\n    \r\n    function viewArray(uint _ix,uint _ix2) public view returns (address){\r\n        return sharelist[_ix].shareIDs[_ix2];\r\n    }\r\n    \r\n    \r\n    function viewDoc(address _visitoraddress, string memory _ipfsHASH) public view returns (string memory){\r\n        if(viewDocCheck(0, _visitoraddress, _ipfsHASH)){\r\n            return sharelist[studentdegreedetails[matchipfs(1, _ipfsHASH)].shareID].orig_ipfsHASH;\r\n        }else{\r\n            return \"No Access\";\r\n        }\r\n    }\r\n    \r\n    function matchipfs(uint count,string memory _ipfsHash) public view returns (uint degreeID){\r\n        if(degreeCounts+1!=count){\r\n            if(keccak256(bytes(studentdegreedetails[count].ipfsHASH)) == keccak256(bytes(_ipfsHash))){\r\n                return count;\r\n            } else {\r\n                count++;\r\n                return matchipfs(count, _ipfsHash);\r\n            }\r\n        } else {\r\n            return 0;\r\n        }\r\n    }\r\n\r\n    function returnShareList(string memory _ipfsHASH) public returns(address[] memory){\r\n        tempData = matchipfs(1, _ipfsHASH);\r\n        if(tempData!=0){\r\n            return sharelist[tempData].shareIDs;\r\n        }\r\n        tempData=0;\r\n    }\r\n    \r\n    function getarr(address _addressid) public view returns (uint ret){\r\n        uint _degreeID = uint(degreelist[_addressid].degreeIDlength)-1;\r\n        return degreelist[_addressid].degreeID[_degreeID];\r\n    }\r\n    \r\n    function getname(address _addressid) public view returns (string memory)  {\r\n        return studentdetail_address[_addressid].name;\r\n    }\r\n    \r\n    function checkipfs(uint count,string memory _ipfsHash, address _addressid) public view returns (bool){\r\n        if(degreelist[_addressid].degreeIDlength>0) {\r\n            if(count==degreelist[_addressid].degreeIDlength){\r\n                count=0;\r\n                return false;\r\n            }\r\n            count++;\r\n            if(keccak256(bytes(studentdegreedetails[count].ipfsHASH)) == keccak256(bytes(_ipfsHash))){\r\n                return checkipfs(count,_ipfsHash,_addressid);\r\n            } else {\r\n                count=0;\r\n                return true;\r\n            }\r\n        } else {\r\n            return false;\r\n        }\r\n    }\r\n\r\n    function admission(string memory _name, address _addressid) public {\r\n        if(!registeredStudent[_addressid] && ownerAddress==msg.sender){\r\n            studentCounts++;\r\n            studentdetail_address[_addressid] = StudentDetails(degreeCounts,_name,_addressid);\r\n            registeredStudent[_addressid]=true;\r\n        }\r\n    }\r\n    \r\nfunction upload (string memory _degree_name, string memory _year, string memory _ipfsHash, address _addressid, string memory _orig_ipfsHASH) public{\r\n        if(registeredStudent[_addressid] && ownerAddress==msg.sender ){\r\n            if(!degreeCompleted[_addressid]){\r\n                getdegreeIDarr(_addressid,degreeCounts);\r\n                degreeCounts ++;\r\n                shareCounts++;\r\n                \r\n                sharelist[shareCounts] = ShareList(shareCounts, _addressid, _degree_name, _ipfsHash, 0, _orig_ipfsHASH, false, tempstring);\r\n                \r\n                studentdegreedetails[degreeCounts] = StudentDegreeDetails(degreeCounts, _degree_name, _year, _ipfsHash, _orig_ipfsHASH, _addressid, shareCounts);\r\n                std_add[_addressid] = StudentDegreeDetails_Address(degreeCounts, _degree_name, _year, _ipfsHash, _orig_ipfsHASH, _addressid, shareCounts);\r\n                degreelist[_addressid] = DegreeList(_addressid, 1,temp);\r\n                degreeCompleted[_addressid]=true;\r\n                lastupload=true;\r\n                \r\n                shareAtUpload(_ipfsHash,_addressid);\r\n            }\r\n            else{\r\n                if(checkipfs(0, _ipfsHash,_addressid)){\r\n                    getdegreeIDarr(_addressid,degreeCounts);\r\n                    degreeCounts ++;\r\n                    shareCounts++;\r\n                    \r\n                    sharelist[shareCounts] = ShareList(shareCounts, _addressid, _degree_name, _ipfsHash, 0, _orig_ipfsHASH, false, tempstring);\r\n                    \r\n                    studentdegreedetails[degreeCounts] = StudentDegreeDetails(degreeCounts, _degree_name, _year, _ipfsHash, _orig_ipfsHASH, _addressid, shareCounts);\r\n                    std_add[_addressid] = StudentDegreeDetails_Address(degreeCounts, _degree_name, _year, _ipfsHash,_orig_ipfsHASH, _addressid, shareCounts);\r\n                    degreelist[_addressid] = DegreeList(_addressid, degreelist[_addressid].degreeIDlength,degreelist[_addressid].degreeID);\r\n                    lastupload=true;\r\n                    \r\n                    shareAtUpload(_ipfsHash,_addressid);\r\n                } else lastupload=false;\r\n            }\r\n        } else lastupload=false;\r\n    }\r\n    \r\n    function getOwenerAddress() public view returns (address){\r\n        return ownerAddress;\r\n    }\r\n}",
  "sourcePath": "D:/1_Drive D/Coding/2021/FINAL YEAR 2020 RGIT Projects/Code Version/Final_Project/src/contracts/Univ.sol",
  "compiler": {
    "name": "solc",
    "version": "0.5.16+commit.9c3226ce.Emscripten.clang"
  },
  "schemaVersion": "3.2.5",
  "updatedAt": "2021-07-24T03:22:01.128Z",
  "networkType": "ethereum",
  "devdoc": {
    "methods": {}
  },
  "userdoc": {
    "methods": {}
  }
}